{
  "_format": "hh-sol-artifact-1",
  "contractName": "EvmClient",
  "sourceName": "contracts/EvmClient.sol",
  "abi": [
    {
      "inputs": [
        {
          "internalType": "address",
          "name": "_address",
          "type": "address"
        }
      ],
      "stateMutability": "nonpayable",
      "type": "constructor"
    },
    {
      "inputs": [],
      "name": "AccessControlBadConfirmation",
      "type": "error"
    },
    {
      "inputs": [
        {
          "internalType": "address",
          "name": "account",
          "type": "address"
        },
        {
          "internalType": "bytes32",
          "name": "neededRole",
          "type": "bytes32"
        }
      ],
      "name": "AccessControlUnauthorizedAccount",
      "type": "error"
    },
    {
      "inputs": [],
      "name": "BadAttestor",
      "type": "error"
    },
    {
      "inputs": [
        {
          "internalType": "uint256",
          "name": "kenLen",
          "type": "uint256"
        },
        {
          "internalType": "uint256",
          "name": "valueLen",
          "type": "uint256"
        }
      ],
      "name": "BadCondLen",
      "type": "error"
    },
    {
      "inputs": [
        {
          "internalType": "uint256",
          "name": "kenLen",
          "type": "uint256"
        },
        {
          "internalType": "uint256",
          "name": "valueLen",
          "type": "uint256"
        }
      ],
      "name": "BadUpdateLen",
      "type": "error"
    },
    {
      "inputs": [
        {
          "internalType": "uint8",
          "name": "actionId",
          "type": "uint8"
        }
      ],
      "name": "CannotDecodeAction",
      "type": "error"
    },
    {
      "inputs": [
        {
          "internalType": "bytes",
          "name": "cond",
          "type": "bytes"
        },
        {
          "internalType": "bytes",
          "name": "expected",
          "type": "bytes"
        },
        {
          "internalType": "bytes",
          "name": "actual",
          "type": "bytes"
        }
      ],
      "name": "CondNotMet",
      "type": "error"
    },
    {
      "inputs": [],
      "name": "ECDSAInvalidSignature",
      "type": "error"
    },
    {
      "inputs": [
        {
          "internalType": "uint256",
          "name": "length",
          "type": "uint256"
        }
      ],
      "name": "ECDSAInvalidSignatureLength",
      "type": "error"
    },
    {
      "inputs": [
        {
          "internalType": "bytes32",
          "name": "s",
          "type": "bytes32"
        }
      ],
      "name": "ECDSAInvalidSignatureS",
      "type": "error"
    },
    {
      "inputs": [
        {
          "internalType": "uint256",
          "name": "targetIdx",
          "type": "uint256"
        },
        {
          "internalType": "uint256",
          "name": "tailIdx",
          "type": "uint256"
        }
      ],
      "name": "InvalidPopTarget",
      "type": "error"
    },
    {
      "inputs": [],
      "name": "InvalidShortString",
      "type": "error"
    },
    {
      "inputs": [],
      "name": "MetaTxSignatureNotMatch",
      "type": "error"
    },
    {
      "inputs": [
        {
          "internalType": "uint256",
          "name": "actual",
          "type": "uint256"
        },
        {
          "internalType": "uint256",
          "name": "currentNonce",
          "type": "uint256"
        }
      ],
      "name": "NonceTooLow",
      "type": "error"
    },
    {
      "inputs": [
        {
          "internalType": "address",
          "name": "owner",
          "type": "address"
        }
      ],
      "name": "OwnableInvalidOwner",
      "type": "error"
    },
    {
      "inputs": [
        {
          "internalType": "address",
          "name": "account",
          "type": "address"
        }
      ],
      "name": "OwnableUnauthorizedAccount",
      "type": "error"
    },
    {
      "inputs": [],
      "name": "ReentrancyGuardReentrantCall",
      "type": "error"
    },
    {
      "inputs": [
        {
          "internalType": "string",
          "name": "str",
          "type": "string"
        }
      ],
      "name": "StringTooLong",
      "type": "error"
    },
    {
      "inputs": [
        {
          "internalType": "uint8",
          "name": "actionId",
          "type": "uint8"
        }
      ],
      "name": "UnsupportedAction",
      "type": "error"
    },
    {
      "anonymous": false,
      "inputs": [],
      "name": "EIP712DomainChanged",
      "type": "event"
    },
    {
      "anonymous": false,
      "inputs": [
        {
          "indexed": false,
          "internalType": "uint256",
          "name": "",
          "type": "uint256"
        }
      ],
      "name": "MessageProcessedTo",
      "type": "event"
    },
    {
      "anonymous": false,
      "inputs": [
        {
          "indexed": false,
          "internalType": "uint256",
          "name": "idx",
          "type": "uint256"
        },
        {
          "indexed": false,
          "internalType": "bytes",
          "name": "data",
          "type": "bytes"
        }
      ],
      "name": "MessageQueued",
      "type": "event"
    },
    {
      "anonymous": false,
      "inputs": [],
      "name": "MetaTxDecoded",
      "type": "event"
    },
    {
      "anonymous": false,
      "inputs": [
        {
          "indexed": true,
          "internalType": "address",
          "name": "previousOwner",
          "type": "address"
        },
        {
          "indexed": true,
          "internalType": "address",
          "name": "newOwner",
          "type": "address"
        }
      ],
      "name": "OwnershipTransferred",
      "type": "event"
    },
    {
      "anonymous": false,
      "inputs": [
        {
          "indexed": true,
          "internalType": "bytes32",
          "name": "role",
          "type": "bytes32"
        },
        {
          "indexed": true,
          "internalType": "bytes32",
          "name": "previousAdminRole",
          "type": "bytes32"
        },
        {
          "indexed": true,
          "internalType": "bytes32",
          "name": "newAdminRole",
          "type": "bytes32"
        }
      ],
      "name": "RoleAdminChanged",
      "type": "event"
    },
    {
      "anonymous": false,
      "inputs": [
        {
          "indexed": true,
          "internalType": "bytes32",
          "name": "role",
          "type": "bytes32"
        },
        {
          "indexed": true,
          "internalType": "address",
          "name": "account",
          "type": "address"
        },
        {
          "indexed": true,
          "internalType": "address",
          "name": "sender",
          "type": "address"
        }
      ],
      "name": "RoleGranted",
      "type": "event"
    },
    {
      "anonymous": false,
      "inputs": [
        {
          "indexed": true,
          "internalType": "bytes32",
          "name": "role",
          "type": "bytes32"
        },
        {
          "indexed": true,
          "internalType": "address",
          "name": "account",
          "type": "address"
        },
        {
          "indexed": true,
          "internalType": "address",
          "name": "sender",
          "type": "address"
        }
      ],
      "name": "RoleRevoked",
      "type": "event"
    },
    {
      "inputs": [],
      "name": "ATTESTOR_ROLE",
      "outputs": [
        {
          "internalType": "bytes32",
          "name": "",
          "type": "bytes32"
        }
      ],
      "stateMutability": "view",
      "type": "function"
    },
    {
      "inputs": [],
      "name": "DEFAULT_ADMIN_ROLE",
      "outputs": [
        {
          "internalType": "bytes32",
          "name": "",
          "type": "bytes32"
        }
      ],
      "stateMutability": "view",
      "type": "function"
    },
    {
      "inputs": [],
      "name": "eip712Domain",
      "outputs": [
        {
          "internalType": "bytes1",
          "name": "fields",
          "type": "bytes1"
        },
        {
          "internalType": "string",
          "name": "name",
          "type": "string"
        },
        {
          "internalType": "string",
          "name": "version",
          "type": "string"
        },
        {
          "internalType": "uint256",
          "name": "chainId",
          "type": "uint256"
        },
        {
          "internalType": "address",
          "name": "verifyingContract",
          "type": "address"
        },
        {
          "internalType": "bytes32",
          "name": "salt",
          "type": "bytes32"
        },
        {
          "internalType": "uint256[]",
          "name": "extensions",
          "type": "uint256[]"
        }
      ],
      "stateMutability": "view",
      "type": "function"
    },
    {
      "inputs": [
        {
          "internalType": "bytes32",
          "name": "role",
          "type": "bytes32"
        }
      ],
      "name": "getRoleAdmin",
      "outputs": [
        {
          "internalType": "bytes32",
          "name": "",
          "type": "bytes32"
        }
      ],
      "stateMutability": "view",
      "type": "function"
    },
    {
      "inputs": [
        {
          "internalType": "bytes",
          "name": "key",
          "type": "bytes"
        }
      ],
      "name": "getStorage",
      "outputs": [
        {
          "internalType": "bytes",
          "name": "",
          "type": "bytes"
        }
      ],
      "stateMutability": "view",
      "type": "function"
    },
    {
      "inputs": [
        {
          "internalType": "bytes32",
          "name": "role",
          "type": "bytes32"
        },
        {
          "internalType": "address",
          "name": "account",
          "type": "address"
        }
      ],
      "name": "grantRole",
      "outputs": [],
      "stateMutability": "nonpayable",
      "type": "function"
    },
    {
      "inputs": [
        {
          "internalType": "bytes32",
          "name": "role",
          "type": "bytes32"
        },
        {
          "internalType": "address",
          "name": "account",
          "type": "address"
        }
      ],
      "name": "hasRole",
      "outputs": [
        {
          "internalType": "bool",
          "name": "",
          "type": "bool"
        }
      ],
      "stateMutability": "view",
      "type": "function"
    },
    {
      "inputs": [
        {
          "internalType": "address",
          "name": "from",
          "type": "address"
        }
      ],
      "name": "metaTxGetNonce",
      "outputs": [
        {
          "internalType": "uint256",
          "name": "",
          "type": "uint256"
        }
      ],
      "stateMutability": "view",
      "type": "function"
    },
    {
      "inputs": [
        {
          "internalType": "address",
          "name": "from",
          "type": "address"
        },
        {
          "internalType": "bytes",
          "name": "data",
          "type": "bytes"
        }
      ],
      "name": "metaTxPrepare",
      "outputs": [
        {
          "components": [
            {
              "internalType": "address",
              "name": "from",
              "type": "address"
            },
            {
              "internalType": "uint256",
              "name": "nonce",
              "type": "uint256"
            },
            {
              "internalType": "bytes",
              "name": "data",
              "type": "bytes"
            }
          ],
          "internalType": "struct MetaTxReceiver.ForwardRequest",
          "name": "",
          "type": "tuple"
        },
        {
          "internalType": "bytes32",
          "name": "",
          "type": "bytes32"
        }
      ],
      "stateMutability": "view",
      "type": "function"
    },
    {
      "inputs": [
        {
          "internalType": "address",
          "name": "from",
          "type": "address"
        },
        {
          "internalType": "bytes",
          "name": "data",
          "type": "bytes"
        },
        {
          "internalType": "uint256",
          "name": "nonce",
          "type": "uint256"
        }
      ],
      "name": "metaTxPrepareWithNonce",
      "outputs": [
        {
          "components": [
            {
              "internalType": "address",
              "name": "from",
              "type": "address"
            },
            {
              "internalType": "uint256",
              "name": "nonce",
              "type": "uint256"
            },
            {
              "internalType": "bytes",
              "name": "data",
              "type": "bytes"
            }
          ],
          "internalType": "struct MetaTxReceiver.ForwardRequest",
          "name": "",
          "type": "tuple"
        },
        {
          "internalType": "bytes32",
          "name": "",
          "type": "bytes32"
        }
      ],
      "stateMutability": "view",
      "type": "function"
    },
    {
      "inputs": [
        {
          "components": [
            {
              "internalType": "address",
              "name": "from",
              "type": "address"
            },
            {
              "internalType": "uint256",
              "name": "nonce",
              "type": "uint256"
            },
            {
              "internalType": "bytes",
              "name": "data",
              "type": "bytes"
            }
          ],
          "internalType": "struct MetaTxReceiver.ForwardRequest",
          "name": "req",
          "type": "tuple"
        },
        {
          "internalType": "bytes",
          "name": "signature",
          "type": "bytes"
        }
      ],
      "name": "metaTxRollupU256CondEq",
      "outputs": [
        {
          "internalType": "bool",
          "name": "",
          "type": "bool"
        }
      ],
      "stateMutability": "nonpayable",
      "type": "function"
    },
    {
      "inputs": [
        {
          "components": [
            {
              "internalType": "address",
              "name": "from",
              "type": "address"
            },
            {
              "internalType": "uint256",
              "name": "nonce",
              "type": "uint256"
            },
            {
              "internalType": "bytes",
              "name": "data",
              "type": "bytes"
            }
          ],
          "internalType": "struct MetaTxReceiver.ForwardRequest",
          "name": "req",
          "type": "tuple"
        },
        {
          "internalType": "bytes",
          "name": "signature",
          "type": "bytes"
        }
      ],
      "name": "metaTxVerify",
      "outputs": [
        {
          "internalType": "bool",
          "name": "",
          "type": "bool"
        }
      ],
      "stateMutability": "view",
      "type": "function"
    },
    {
      "inputs": [],
      "name": "owner",
      "outputs": [
        {
          "internalType": "address",
          "name": "",
          "type": "address"
        }
      ],
      "stateMutability": "view",
      "type": "function"
    },
    {
      "inputs": [
        {
          "internalType": "bytes",
          "name": "data",
          "type": "bytes"
        }
      ],
      "name": "pushMessage",
      "outputs": [],
      "stateMutability": "nonpayable",
      "type": "function"
    },
    {
      "inputs": [],
      "name": "queueGetPrefix",
      "outputs": [
        {
          "internalType": "bytes",
          "name": "",
          "type": "bytes"
        }
      ],
      "stateMutability": "pure",
      "type": "function"
    },
    {
      "inputs": [
        {
          "internalType": "address",
          "name": "_attestor",
          "type": "address"
        }
      ],
      "name": "registerAttestor",
      "outputs": [],
      "stateMutability": "nonpayable",
      "type": "function"
    },
    {
      "inputs": [],
      "name": "renounceOwnership",
      "outputs": [],
      "stateMutability": "nonpayable",
      "type": "function"
    },
    {
      "inputs": [
        {
          "internalType": "bytes32",
          "name": "role",
          "type": "bytes32"
        },
        {
          "internalType": "address",
          "name": "callerConfirmation",
          "type": "address"
        }
      ],
      "name": "renounceRole",
      "outputs": [],
      "stateMutability": "nonpayable",
      "type": "function"
    },
    {
      "inputs": [
        {
          "internalType": "bytes32",
          "name": "role",
          "type": "bytes32"
        },
        {
          "internalType": "address",
          "name": "account",
          "type": "address"
        }
      ],
      "name": "revokeRole",
      "outputs": [],
      "stateMutability": "nonpayable",
      "type": "function"
    },
    {
      "inputs": [
        {
          "internalType": "bytes[]",
          "name": "condKeys",
          "type": "bytes[]"
        },
        {
          "internalType": "bytes[]",
          "name": "condValues",
          "type": "bytes[]"
        },
        {
          "internalType": "bytes[]",
          "name": "updateKeys",
          "type": "bytes[]"
        },
        {
          "internalType": "bytes[]",
          "name": "updateValues",
          "type": "bytes[]"
        },
        {
          "internalType": "bytes[]",
          "name": "actions",
          "type": "bytes[]"
        }
      ],
      "name": "rollupU256CondEq",
      "outputs": [
        {
          "internalType": "bool",
          "name": "",
          "type": "bool"
        }
      ],
      "stateMutability": "nonpayable",
      "type": "function"
    },
    {
      "inputs": [
        {
          "internalType": "bytes4",
          "name": "interfaceId",
          "type": "bytes4"
        }
      ],
      "name": "supportsInterface",
      "outputs": [
        {
          "internalType": "bool",
          "name": "",
          "type": "bool"
        }
      ],
      "stateMutability": "view",
      "type": "function"
    },
    {
      "inputs": [
        {
          "internalType": "address",
          "name": "newOwner",
          "type": "address"
        }
      ],
      "name": "transferOwnership",
      "outputs": [],
      "stateMutability": "nonpayable",
      "type": "function"
    }
  ],
  "bytecode": "0x6101606040523480156200001257600080fd5b5060405162004a9438038062004a948339818101604052810190620000389190620005d4565b806040518060400160405280601881526020017f50686174526f6c6c75704d6574615478526563656976657200000000000000008152506040518060400160405280600581526020017f302e302e310000000000000000000000000000000000000000000000000000008152506001600081905550620000c36001836200020160201b90919060201c565b6101208181525050620000e16002826200020160201b90919060201c565b6101408181525050818051906020012060e08181525050808051906020012061010081815250504660a08181525050620001206200025960201b60201c565b608081815250503073ffffffffffffffffffffffffffffffffffffffff1660c08173ffffffffffffffffffffffffffffffffffffffff16815250505050600073ffffffffffffffffffffffffffffffffffffffff168173ffffffffffffffffffffffffffffffffffffffff1603620001d25760006040517f1e4fbdf7000000000000000000000000000000000000000000000000000000008152600401620001c9919062000617565b60405180910390fd5b620001e381620002b660201b60201c565b50620001f96000801b826200037c60201b60201c565b505062000b73565b600060208351101562000227576200021f836200048060201b60201c565b905062000253565b826200023983620004ed60201b60201c565b60000190816200024a9190620008ae565b5060ff60001b90505b92915050565b60007f8b73c3c69bb8fe3d512ecc4cf759cc79239f7b179b0ffacaa9a75d522b39400f60e0516101005146306040516020016200029b959493929190620009c1565b60405160208183030381529060405280519060200120905090565b6000600360009054906101000a900473ffffffffffffffffffffffffffffffffffffffff16905081600360006101000a81548173ffffffffffffffffffffffffffffffffffffffff021916908373ffffffffffffffffffffffffffffffffffffffff1602179055508173ffffffffffffffffffffffffffffffffffffffff168173ffffffffffffffffffffffffffffffffffffffff167f8be0079c531659141344cd1fd0a4f28419497f9722a3daafe3b4186f6b6457e060405160405180910390a35050565b6000620003908383620004f760201b60201c565b620004755760016005600085815260200190815260200160002060000160008473ffffffffffffffffffffffffffffffffffffffff1673ffffffffffffffffffffffffffffffffffffffff16815260200190815260200160002060006101000a81548160ff021916908315150217905550620004116200056260201b60201c565b73ffffffffffffffffffffffffffffffffffffffff168273ffffffffffffffffffffffffffffffffffffffff16847f2f8788117e7eff1d82e926ec794901d17c78024a50270940304540a733656f0d60405160405180910390a4600190506200047a565b600090505b92915050565b600080829050601f81511115620004d057826040517f305a27a9000000000000000000000000000000000000000000000000000000008152600401620004c7919062000aad565b60405180910390fd5b805181620004de9062000b03565b60001c1760001b915050919050565b6000819050919050565b60006005600084815260200190815260200160002060000160008373ffffffffffffffffffffffffffffffffffffffff1673ffffffffffffffffffffffffffffffffffffffff16815260200190815260200160002060009054906101000a900460ff16905092915050565b600033905090565b600080fd5b600073ffffffffffffffffffffffffffffffffffffffff82169050919050565b60006200059c826200056f565b9050919050565b620005ae816200058f565b8114620005ba57600080fd5b50565b600081519050620005ce81620005a3565b92915050565b600060208284031215620005ed57620005ec6200056a565b5b6000620005fd84828501620005bd565b91505092915050565b62000611816200058f565b82525050565b60006020820190506200062e600083018462000606565b92915050565b600081519050919050565b7f4e487b7100000000000000000000000000000000000000000000000000000000600052604160045260246000fd5b7f4e487b7100000000000000000000000000000000000000000000000000000000600052602260045260246000fd5b60006002820490506001821680620006b657607f821691505b602082108103620006cc57620006cb6200066e565b5b50919050565b60008190508160005260206000209050919050565b60006020601f8301049050919050565b600082821b905092915050565b600060088302620007367fffffffffffffffffffffffffffffffffffffffffffffffffffffffffffffffff82620006f7565b620007428683620006f7565b95508019841693508086168417925050509392505050565b6000819050919050565b6000819050919050565b60006200078f6200078962000783846200075a565b62000764565b6200075a565b9050919050565b6000819050919050565b620007ab836200076e565b620007c3620007ba8262000796565b84845462000704565b825550505050565b600090565b620007da620007cb565b620007e7818484620007a0565b505050565b5b818110156200080f5762000803600082620007d0565b600181019050620007ed565b5050565b601f8211156200085e576200082881620006d2565b6200083384620006e7565b8101602085101562000843578190505b6200085b6200085285620006e7565b830182620007ec565b50505b505050565b600082821c905092915050565b6000620008836000198460080262000863565b1980831691505092915050565b60006200089e838362000870565b9150826002028217905092915050565b620008b98262000634565b67ffffffffffffffff811115620008d557620008d46200063f565b5b620008e182546200069d565b620008ee82828562000813565b600060209050601f83116001811462000926576000841562000911578287015190505b6200091d858262000890565b8655506200098d565b601f1984166200093686620006d2565b60005b82811015620009605784890151825560018201915060208501945060208101905062000939565b868310156200098057848901516200097c601f89168262000870565b8355505b6001600288020188555050505b505050505050565b6000819050919050565b620009aa8162000995565b82525050565b620009bb816200075a565b82525050565b600060a082019050620009d860008301886200099f565b620009e760208301876200099f565b620009f660408301866200099f565b62000a056060830185620009b0565b62000a14608083018462000606565b9695505050505050565b600082825260208201905092915050565b60005b8381101562000a4f57808201518184015260208101905062000a32565b60008484015250505050565b6000601f19601f8301169050919050565b600062000a798262000634565b62000a85818562000a1e565b935062000a9781856020860162000a2f565b62000aa28162000a5b565b840191505092915050565b6000602082019050818103600083015262000ac9818462000a6c565b905092915050565b600081519050919050565b6000819050602082019050919050565b600062000afa825162000995565b80915050919050565b600062000b108262000ad1565b8262000b1c8462000adc565b905062000b298162000aec565b9250602082101562000b6c5762000b677fffffffffffffffffffffffffffffffffffffffffffffffffffffffffffffffff83602003600802620006f7565b831692505b5050919050565b60805160a05160c05160e051610100516101205161014051613ec662000bce6000396000611402015260006113c7015260006121ac0152600061218b01526000611887015260006118dd015260006119060152613ec66000f3fe608060405234801561001057600080fd5b50600436106101425760003560e01c80638da5cb5b116100b8578063bbbfe4461161007c578063bbbfe44614610393578063caa0ff21146103c3578063d547741f146103f3578063f2fde38b1461040f578063f31876901461042b578063f4034a961461044757610142565b80638da5cb5b146102c757806391d14854146102e5578063a217fddf14610315578063a51831a814610333578063ad0bc4641461036357610142565b80635232f0d71161010a5780635232f0d714610210578063602ad66514610241578063627236441461025d578063715018a61461027b578063843739cd1461028557806384b0196e146102a357610142565b806301ffc9a71461014757806322dae16c14610177578063248a9ca3146101a85780632f2ff15d146101d857806336568abe146101f4575b600080fd5b610161600480360381019061015c91906126bf565b610477565b60405161016e9190612707565b60405180910390f35b610191600480360381019061018c919061281b565b6104f1565b60405161019f9291906129a6565b60405180910390f35b6101c260048036038101906101bd9190612a02565b6106ba565b6040516101cf9190612a2f565b60405180910390f35b6101f260048036038101906101ed9190612a4a565b6106da565b005b61020e60048036038101906102099190612a4a565b6106fc565b005b61022a60048036038101906102259190612a8a565b610777565b6040516102389291906129a6565b60405180910390f35b61025b60048036038101906102569190612aea565b6107d8565b005b610265610813565b6040516102729190612a2f565b60405180910390f35b610283610837565b005b61028d61084b565b60405161029a9190612b61565b60405180910390f35b6102ab610888565b6040516102be9796959493929190612ce0565b60405180910390f35b6102cf610932565b6040516102dc9190612d64565b60405180910390f35b6102ff60048036038101906102fa9190612a4a565b61095c565b60405161030c9190612707565b60405180910390f35b61031d6109c7565b60405161032a9190612a2f565b60405180910390f35b61034d60048036038101906103489190612dd5565b6109ce565b60405161035a9190612707565b60405180910390f35b61037d60048036038101906103789190612f16565b610a8c565b60405161038a9190612707565b60405180910390f35b6103ad60048036038101906103a89190612f16565b610c9a565b6040516103ba9190612707565b60405180910390f35b6103dd60048036038101906103d891906130c2565b610e30565b6040516103ea9190612b61565b60405180910390f35b61040d60048036038101906104089190612a4a565b610ee0565b005b61042960048036038101906104249190612aea565b610f02565b005b610445600480360381019061044091906130c2565b610f88565b005b610461600480360381019061045c9190612aea565b610fa3565b60405161046e919061310b565b60405180910390f35b60007f7965db0b000000000000000000000000000000000000000000000000000000007bffffffffffffffffffffffffffffffffffffffffffffffffffffffff1916827bffffffffffffffffffffffffffffffffffffffffffffffffffffffff191614806104ea57506104e982610fec565b5b9050919050565b6104f96125bf565b6000600460008773ffffffffffffffffffffffffffffffffffffffff1673ffffffffffffffffffffffffffffffffffffffff168152602001908152602001600020548310156105c05782600460008873ffffffffffffffffffffffffffffffffffffffff1673ffffffffffffffffffffffffffffffffffffffff168152602001908152602001600020546040517f045f356c0000000000000000000000000000000000000000000000000000000081526004016105b7929190613126565b60405180910390fd5b600060405180606001604052808873ffffffffffffffffffffffffffffffffffffffff16815260200185815260200187878080601f016020809104026020016040519081016040528093929190818152602001838380828437600081840152601f19601f82011690508083019250505050505050815250905060006106a77f2c521d146a6f6c09462cb178367b028f1718b1f01d7995bb405dae702c2bee7d89878a8a60405161067192919061317f565b604051809103902060405160200161068c9493929190613198565b60405160208183030381529060405280519060200120611056565b9050818193509350505094509492505050565b600060056000838152602001908152602001600020600101549050919050565b6106e3826106ba565b6106ec81611070565b6106f68383611084565b50505050565b610704611176565b73ffffffffffffffffffffffffffffffffffffffff168173ffffffffffffffffffffffffffffffffffffffff1614610768576040517f6697b23200000000000000000000000000000000000000000000000000000000815260040160405180910390fd5b610772828261117e565b505050565b61077f6125bf565b60006107cc858585600460008a73ffffffffffffffffffffffffffffffffffffffff1673ffffffffffffffffffffffffffffffffffffffff168152602001908152602001600020546104f1565b91509150935093915050565b6000801b6107e581611070565b61080f7fa7e0cd0f2772b23ee4c329892293a6bd99d48c306b094d6d008c9a8bb8b731e4836106da565b5050565b7fa7e0cd0f2772b23ee4c329892293a6bd99d48c306b094d6d008c9a8bb8b731e481565b61083f611271565b61084960006112f8565b565b60606040518060400160405280600281526020017f712f000000000000000000000000000000000000000000000000000000000000815250905090565b60006060806000806000606061089c6113be565b6108a46113f9565b46306000801b600067ffffffffffffffff8111156108c5576108c4612f97565b5b6040519080825280602002602001820160405280156108f35781602001602082028036833780820191505090505b507f0f00000000000000000000000000000000000000000000000000000000000000959493929190965096509650965096509650965090919293949596565b6000600360009054906101000a900473ffffffffffffffffffffffffffffffffffffffff16905090565b60006005600084815260200190815260200160002060000160008373ffffffffffffffffffffffffffffffffffffffff1673ffffffffffffffffffffffffffffffffffffffff16815260200190815260200160002060009054906101000a900460ff16905092915050565b6000801b81565b60003073ffffffffffffffffffffffffffffffffffffffff163373ffffffffffffffffffffffffffffffffffffffff1614158015610a335750610a317fa7e0cd0f2772b23ee4c329892293a6bd99d48c306b094d6d008c9a8bb8b731e43361095c565b155b15610a6a576040517f20d82bef00000000000000000000000000000000000000000000000000000000815260040160405180910390fd5b610a7c8b8b8b8b8b8b8b8b8b8b611434565b90509a9950505050505050505050565b6000838383610a9c838383610c9a565b610ad2576040517fbde0493900000000000000000000000000000000000000000000000000000000815260040160405180910390fd5b60018360200135610ae3919061320c565b60046000856000016020810190610afa9190612aea565b73ffffffffffffffffffffffffffffffffffffffff1673ffffffffffffffffffffffffffffffffffffffff16815260200190815260200160002081905550610b747fa7e0cd0f2772b23ee4c329892293a6bd99d48c306b094d6d008c9a8bb8b731e4886000016020810190610b6f9190612aea565b61095c565b610baa576040517f20d82bef00000000000000000000000000000000000000000000000000000000815260040160405180910390fd5b60008060008060008b8060400190610bc2919061324f565b810190610bcf9190613393565b945094509450945094507fd51c7c5244bba290f6c37777de0bc20a70c18abd55539658bc63251379297dcd60405160405180910390a13073ffffffffffffffffffffffffffffffffffffffff1663a51831a886868686866040518663ffffffff1660e01b8152600401610c4695949392919061355c565b6020604051808303816000875af1158015610c65573d6000803e3d6000fd5b505050506040513d601f19601f82011682018060405250810190610c8991906135fe565b985050505050505050509392505050565b600080610d8384848080601f016020809104026020016040519081016040528093929190818152602001838380828437600081840152601f19601f82011690508083019250505050505050610d757f2c521d146a6f6c09462cb178367b028f1718b1f01d7995bb405dae702c2bee7d886000016020810190610d1c9190612aea565b89602001358a8060400190610d31919061324f565b604051610d3f92919061317f565b6040518091039020604051602001610d5a9493929190613198565b60405160208183030381529060405280519060200120611056565b61175890919063ffffffff16565b9050846020013560046000876000016020810190610da19190612aea565b73ffffffffffffffffffffffffffffffffffffffff1673ffffffffffffffffffffffffffffffffffffffff16815260200190815260200160002054148015610e265750846000016020810190610df79190612aea565b73ffffffffffffffffffffffffffffffffffffffff168173ffffffffffffffffffffffffffffffffffffffff16145b9150509392505050565b6060600682604051610e42919061365c565b90815260200160405180910390208054610e5b906136a2565b80601f0160208091040260200160405190810160405280929190818152602001828054610e87906136a2565b8015610ed45780601f10610ea957610100808354040283529160200191610ed4565b820191906000526020600020905b815481529060010190602001808311610eb757829003601f168201915b50505050509050919050565b610ee9826106ba565b610ef281611070565b610efc838361117e565b50505050565b610f0a611271565b600073ffffffffffffffffffffffffffffffffffffffff168173ffffffffffffffffffffffffffffffffffffffff1603610f7c5760006040517f1e4fbdf7000000000000000000000000000000000000000000000000000000008152600401610f739190612d64565b60405180910390fd5b610f85816112f8565b50565b6000801b610f9581611070565b610f9e82611784565b505050565b6000600460008373ffffffffffffffffffffffffffffffffffffffff1673ffffffffffffffffffffffffffffffffffffffff168152602001908152602001600020549050919050565b60007f01ffc9a7000000000000000000000000000000000000000000000000000000007bffffffffffffffffffffffffffffffffffffffffffffffffffffffff1916827bffffffffffffffffffffffffffffffffffffffffffffffffffffffff1916149050919050565b6000611069611063611883565b8361193a565b9050919050565b6110818161107c611176565b61197b565b50565b6000611090838361095c565b61116b5760016005600085815260200190815260200160002060000160008473ffffffffffffffffffffffffffffffffffffffff1673ffffffffffffffffffffffffffffffffffffffff16815260200190815260200160002060006101000a81548160ff021916908315150217905550611108611176565b73ffffffffffffffffffffffffffffffffffffffff168273ffffffffffffffffffffffffffffffffffffffff16847f2f8788117e7eff1d82e926ec794901d17c78024a50270940304540a733656f0d60405160405180910390a460019050611170565b600090505b92915050565b600033905090565b600061118a838361095c565b156112665760006005600085815260200190815260200160002060000160008473ffffffffffffffffffffffffffffffffffffffff1673ffffffffffffffffffffffffffffffffffffffff16815260200190815260200160002060006101000a81548160ff021916908315150217905550611203611176565b73ffffffffffffffffffffffffffffffffffffffff168273ffffffffffffffffffffffffffffffffffffffff16847ff6391f5c32d9c69d2a47ea670b442974b53935d1edc7fd64eb21e047a839171b60405160405180910390a46001905061126b565b600090505b92915050565b611279611176565b73ffffffffffffffffffffffffffffffffffffffff16611297610932565b73ffffffffffffffffffffffffffffffffffffffff16146112f6576112ba611176565b6040517f118cdaa70000000000000000000000000000000000000000000000000000000081526004016112ed9190612d64565b60405180910390fd5b565b6000600360009054906101000a900473ffffffffffffffffffffffffffffffffffffffff16905081600360006101000a81548173ffffffffffffffffffffffffffffffffffffffff021916908373ffffffffffffffffffffffffffffffffffffffff1602179055508173ffffffffffffffffffffffffffffffffffffffff168173ffffffffffffffffffffffffffffffffffffffff167f8be0079c531659141344cd1fd0a4f28419497f9722a3daafe3b4186f6b6457e060405160405180910390a35050565b60606113f460017f00000000000000000000000000000000000000000000000000000000000000006119cc90919063ffffffff16565b905090565b606061142f60027f00000000000000000000000000000000000000000000000000000000000000006119cc90919063ffffffff16565b905090565b600061143e611a7c565b888890508b8b905014611490578a8a9050898990506040517f60e56888000000000000000000000000000000000000000000000000000000008152600401611487929190613126565b60405180910390fd5b8484905087879050146114e25786869050858590506040517fcca1bd420000000000000000000000000000000000000000000000000000000081526004016114d9929190613126565b60405180910390fd5b60005b8b8b905081101561166257898982818110611503576115026136d3565b5b9050602002810190611515919061324f565b60405161152392919061317f565b604051809103902060068d8d848181106115405761153f6136d3565b5b9050602002810190611552919061324f565b60405161156092919061317f565b908152602001604051809103902060405161157b919061379a565b604051809103902014611655578b8b8281811061159b5761159a6136d3565b5b90506020028101906115ad919061324f565b60068e8e858181106115c2576115c16136d3565b5b90506020028101906115d4919061324f565b6040516115e292919061317f565b90815260200160405180910390208c8c85818110611603576116026136d3565b5b9050602002810190611615919061324f565b6040517f4424e6c800000000000000000000000000000000000000000000000000000000815260040161164c959493929190613862565b60405180910390fd5b80806001019150506114e5565b5060005b878790508110156116f457858582818110611684576116836136d3565b5b9050602002810190611696919061324f565b60068a8a858181106116ab576116aa6136d3565b5b90506020028101906116bd919061324f565b6040516116cb92919061317f565b908152602001604051809103902091826116e6929190613a54565b508080600101915050611666565b5060005b8383905081101561173d57611730848483818110611719576117186136d3565b5b905060200281019061172b919061324f565b611ac2565b80806001019150506116f8565b506001905061174a611d3f565b9a9950505050505050505050565b6000806000806117688686611d49565b9250925092506117788282611da5565b82935050505092915050565b6000806117c56040518060400160405280600581526020017f5f7461696c000000000000000000000000000000000000000000000000000000815250611f09565b90506000816040516020016117da919061310b565b60405160208183030381529060405290506117f5818561203b565b6118406040518060400160405280600581526020017f5f7461696c00000000000000000000000000000000000000000000000000000081525060018461183b919061320c565b6120c1565b7f907e5e373368eaab41cf7fd560721ee39c92964cc7abc6eba2acb769b1f707998285604051611871929190613b24565b60405180910390a18192505050919050565b60007f000000000000000000000000000000000000000000000000000000000000000073ffffffffffffffffffffffffffffffffffffffff163073ffffffffffffffffffffffffffffffffffffffff161480156118ff57507f000000000000000000000000000000000000000000000000000000000000000046145b1561192c577f00000000000000000000000000000000000000000000000000000000000000009050611937565b611934612166565b90505b90565b60006040517f190100000000000000000000000000000000000000000000000000000000000081528360028201528260228201526042812091505092915050565b611985828261095c565b6119c85780826040517fe2517d3f0000000000000000000000000000000000000000000000000000000081526004016119bf929190613b54565b60405180910390fd5b5050565b606060ff60001b83146119e9576119e2836121fc565b9050611a76565b8180546119f5906136a2565b80601f0160208091040260200160405190810160405280929190818152602001828054611a21906136a2565b8015611a6e5780601f10611a4357610100808354040283529160200191611a6e565b820191906000526020600020905b815481529060010190602001808311611a5157829003601f168201915b505050505090505b92915050565b600260005403611ab8576040517f3ee5aeb500000000000000000000000000000000000000000000000000000000815260040160405180910390fd5b6002600081905550565b600082826000818110611ad857611ad76136d3565b5b9050013560f81c60f81b60f81c9050600060ff168160ff1603611b1557611b1083836001908092611b0b93929190613b87565b612270565b611d3a565b600160ff168160ff1603611ba0576021838390501015611b6d5760016040517f565ba7b9000000000000000000000000000000000000000000000000000000008152600401611b649190613bde565b60405180910390fd5b600083836001908092611b8293929190613b87565b810190611b8f9190613bf9565b9050611b9a81612274565b50611d39565b600260ff168160ff1603611c4d576015838390501015611bf85760026040517f565ba7b9000000000000000000000000000000000000000000000000000000008152600401611bef9190613bde565b60405180910390fd5b600083836001908092611c0d93929190613b87565b810190611c1a9190613c64565b9050611c467fa7e0cd0f2772b23ee4c329892293a6bd99d48c306b094d6d008c9a8bb8b731e482611084565b5050611d38565b600360ff168160ff1603611cfa576015838390501015611ca55760036040517f565ba7b9000000000000000000000000000000000000000000000000000000008152600401611c9c9190613bde565b60405180910390fd5b600083836001908092611cba93929190613b87565b810190611cc79190613c64565b9050611cf37fa7e0cd0f2772b23ee4c329892293a6bd99d48c306b094d6d008c9a8bb8b731e48261117e565b5050611d37565b806040517f0e8b3d1d000000000000000000000000000000000000000000000000000000008152600401611d2e9190613bde565b60405180910390fd5b5b5b5b505050565b6001600081905550565b60008060006041845103611d8e5760008060006020870151925060408701519150606087015160001a9050611d80888285856123d9565b955095509550505050611d9e565b60006002855160001b9250925092505b9250925092565b60006003811115611db957611db8613c91565b5b826003811115611dcc57611dcb613c91565b5b0315611f055760016003811115611de657611de5613c91565b5b826003811115611df957611df8613c91565b5b03611e30576040517ff645eedf00000000000000000000000000000000000000000000000000000000815260040160405180910390fd5b60026003811115611e4457611e43613c91565b5b826003811115611e5757611e56613c91565b5b03611e9c578060001c6040517ffce698f7000000000000000000000000000000000000000000000000000000008152600401611e93919061310b565b60405180910390fd5b600380811115611eaf57611eae613c91565b5b826003811115611ec257611ec1613c91565b5b03611f0457806040517fd78bce0c000000000000000000000000000000000000000000000000000000008152600401611efb9190612a2f565b60405180910390fd5b5b5050565b60008060066040518060400160405280600281526020017f712f00000000000000000000000000000000000000000000000000000000000081525084604051602001611f56929190613cc0565b604051602081830303815290604052604051611f72919061365c565b90815260200160405180910390208054611f8b906136a2565b80601f0160208091040260200160405190810160405280929190818152602001828054611fb7906136a2565b80156120045780601f10611fd957610100808354040283529160200191612004565b820191906000526020600020905b815481529060010190602001808311611fe757829003601f168201915b50505050509050600081510361201e576000915050612036565b808060200190518101906120329190613cf9565b9150505b919050565b8060066040518060400160405280600281526020017f712f00000000000000000000000000000000000000000000000000000000000081525084604051602001612086929190613cc0565b6040516020818303038152906040526040516120a2919061365c565b908152602001604051809103902090816120bc9190613d26565b505050565b806040516020016120d2919061310b565b60405160208183030381529060405260066040518060400160405280600281526020017f712f0000000000000000000000000000000000000000000000000000000000008152508460405160200161212b929190613cc0565b604051602081830303815290604052604051612147919061365c565b908152602001604051809103902090816121619190613d26565b505050565b60007f8b73c3c69bb8fe3d512ecc4cf759cc79239f7b179b0ffacaa9a75d522b39400f7f00000000000000000000000000000000000000000000000000000000000000007f000000000000000000000000000000000000000000000000000000000000000046306040516020016121e1959493929190613df8565b60405160208183030381529060405280519060200120905090565b60606000612209836124cd565b90506000602067ffffffffffffffff81111561222857612227612f97565b5b6040519080825280601f01601f19166020018201604052801561225a5781602001600182028036833780820191505090505b5090508181528360208201528092505050919050565b5050565b60006122b46040518060400160405280600581526020017f5f7461696c000000000000000000000000000000000000000000000000000000815250611f09565b9050808211156122fd5781816040517f186c5d530000000000000000000000000000000000000000000000000000000081526004016122f4929190613126565b60405180910390fd5b600061233d6040518060400160405280600581526020017f5f68656164000000000000000000000000000000000000000000000000000000815250611f09565b90505b8281101561235e576123518161251d565b8080600101915050612340565b5061239e6040518060400160405280600581526020017f5f68656164000000000000000000000000000000000000000000000000000000815250836120c1565b7f32fd4e5662a5d890e9d364f2b91716af396675b17d0d56aa259e0a42ca55751c826040516123cd919061310b565b60405180910390a15050565b60008060007f7fffffffffffffffffffffffffffffff5d576e7357a4501ddfe92f46681b20a08460001c11156124195760006003859250925092506124c3565b60006001888888886040516000815260200160405260405161243e9493929190613e4b565b6020604051602081039080840390855afa158015612460573d6000803e3d6000fd5b505050602060405103519050600073ffffffffffffffffffffffffffffffffffffffff168173ffffffffffffffffffffffffffffffffffffffff16036124b457600060016000801b935093509350506124c3565b8060008060001b935093509350505b9450945094915050565b60008060ff8360001c169050601f811115612514576040517fb3512b0c00000000000000000000000000000000000000000000000000000000815260040160405180910390fd5b80915050919050565b60066040518060400160405280600281526020017f712f00000000000000000000000000000000000000000000000000000000000081525082604051602001612566919061310b565b604051602081830303815290604052604051602001612586929190613cc0565b6040516020818303038152906040526040516125a2919061365c565b908152602001604051809103902060006125bc91906125f6565b50565b6040518060600160405280600073ffffffffffffffffffffffffffffffffffffffff16815260200160008152602001606081525090565b508054612602906136a2565b6000825580601f106126145750612633565b601f0160209004906000526020600020908101906126329190612636565b5b50565b5b8082111561264f576000816000905550600101612637565b5090565b6000604051905090565b600080fd5b600080fd5b60007fffffffff0000000000000000000000000000000000000000000000000000000082169050919050565b61269c81612667565b81146126a757600080fd5b50565b6000813590506126b981612693565b92915050565b6000602082840312156126d5576126d461265d565b5b60006126e3848285016126aa565b91505092915050565b60008115159050919050565b612701816126ec565b82525050565b600060208201905061271c60008301846126f8565b92915050565b600073ffffffffffffffffffffffffffffffffffffffff82169050919050565b600061274d82612722565b9050919050565b61275d81612742565b811461276857600080fd5b50565b60008135905061277a81612754565b92915050565b600080fd5b600080fd5b600080fd5b60008083601f8401126127a5576127a4612780565b5b8235905067ffffffffffffffff8111156127c2576127c1612785565b5b6020830191508360018202830111156127de576127dd61278a565b5b9250929050565b6000819050919050565b6127f8816127e5565b811461280357600080fd5b50565b600081359050612815816127ef565b92915050565b600080600080606085870312156128355761283461265d565b5b60006128438782880161276b565b945050602085013567ffffffffffffffff81111561286457612863612662565b5b6128708782880161278f565b9350935050604061288387828801612806565b91505092959194509250565b61289881612742565b82525050565b6128a7816127e5565b82525050565b600081519050919050565b600082825260208201905092915050565b60005b838110156128e75780820151818401526020810190506128cc565b60008484015250505050565b6000601f19601f8301169050919050565b600061290f826128ad565b61291981856128b8565b93506129298185602086016128c9565b612932816128f3565b840191505092915050565b6000606083016000830151612955600086018261288f565b506020830151612968602086018261289e565b50604083015184820360408601526129808282612904565b9150508091505092915050565b6000819050919050565b6129a08161298d565b82525050565b600060408201905081810360008301526129c0818561293d565b90506129cf6020830184612997565b9392505050565b6129df8161298d565b81146129ea57600080fd5b50565b6000813590506129fc816129d6565b92915050565b600060208284031215612a1857612a1761265d565b5b6000612a26848285016129ed565b91505092915050565b6000602082019050612a446000830184612997565b92915050565b60008060408385031215612a6157612a6061265d565b5b6000612a6f858286016129ed565b9250506020612a808582860161276b565b9150509250929050565b600080600060408486031215612aa357612aa261265d565b5b6000612ab18682870161276b565b935050602084013567ffffffffffffffff811115612ad257612ad1612662565b5b612ade8682870161278f565b92509250509250925092565b600060208284031215612b0057612aff61265d565b5b6000612b0e8482850161276b565b91505092915050565b600082825260208201905092915050565b6000612b33826128ad565b612b3d8185612b17565b9350612b4d8185602086016128c9565b612b56816128f3565b840191505092915050565b60006020820190508181036000830152612b7b8184612b28565b905092915050565b60007fff0000000000000000000000000000000000000000000000000000000000000082169050919050565b612bb881612b83565b82525050565b600081519050919050565b600082825260208201905092915050565b6000612be582612bbe565b612bef8185612bc9565b9350612bff8185602086016128c9565b612c08816128f3565b840191505092915050565b612c1c816127e5565b82525050565b612c2b81612742565b82525050565b600081519050919050565b600082825260208201905092915050565b6000819050602082019050919050565b6000612c69838361289e565b60208301905092915050565b6000602082019050919050565b6000612c8d82612c31565b612c978185612c3c565b9350612ca283612c4d565b8060005b83811015612cd3578151612cba8882612c5d565b9750612cc583612c75565b925050600181019050612ca6565b5085935050505092915050565b600060e082019050612cf5600083018a612baf565b8181036020830152612d078189612bda565b90508181036040830152612d1b8188612bda565b9050612d2a6060830187612c13565b612d376080830186612c22565b612d4460a0830185612997565b81810360c0830152612d568184612c82565b905098975050505050505050565b6000602082019050612d796000830184612c22565b92915050565b60008083601f840112612d9557612d94612780565b5b8235905067ffffffffffffffff811115612db257612db1612785565b5b602083019150836020820283011115612dce57612dcd61278a565b5b9250929050565b60008060008060008060008060008060a08b8d031215612df857612df761265d565b5b60008b013567ffffffffffffffff811115612e1657612e15612662565b5b612e228d828e01612d7f565b9a509a505060208b013567ffffffffffffffff811115612e4557612e44612662565b5b612e518d828e01612d7f565b985098505060408b013567ffffffffffffffff811115612e7457612e73612662565b5b612e808d828e01612d7f565b965096505060608b013567ffffffffffffffff811115612ea357612ea2612662565b5b612eaf8d828e01612d7f565b945094505060808b013567ffffffffffffffff811115612ed257612ed1612662565b5b612ede8d828e01612d7f565b92509250509295989b9194979a5092959850565b600080fd5b600060608284031215612f0d57612f0c612ef2565b5b81905092915050565b600080600060408486031215612f2f57612f2e61265d565b5b600084013567ffffffffffffffff811115612f4d57612f4c612662565b5b612f5986828701612ef7565b935050602084013567ffffffffffffffff811115612f7a57612f79612662565b5b612f868682870161278f565b92509250509250925092565b600080fd5b7f4e487b7100000000000000000000000000000000000000000000000000000000600052604160045260246000fd5b612fcf826128f3565b810181811067ffffffffffffffff82111715612fee57612fed612f97565b5b80604052505050565b6000613001612653565b905061300d8282612fc6565b919050565b600067ffffffffffffffff82111561302d5761302c612f97565b5b613036826128f3565b9050602081019050919050565b82818337600083830152505050565b600061306561306084613012565b612ff7565b90508281526020810184848401111561308157613080612f92565b5b61308c848285613043565b509392505050565b600082601f8301126130a9576130a8612780565b5b81356130b9848260208601613052565b91505092915050565b6000602082840312156130d8576130d761265d565b5b600082013567ffffffffffffffff8111156130f6576130f5612662565b5b61310284828501613094565b91505092915050565b60006020820190506131206000830184612c13565b92915050565b600060408201905061313b6000830185612c13565b6131486020830184612c13565b9392505050565b600081905092915050565b6000613166838561314f565b9350613173838584613043565b82840190509392505050565b600061318c82848661315a565b91508190509392505050565b60006080820190506131ad6000830187612997565b6131ba6020830186612c22565b6131c76040830185612c13565b6131d46060830184612997565b95945050505050565b7f4e487b7100000000000000000000000000000000000000000000000000000000600052601160045260246000fd5b6000613217826127e5565b9150613222836127e5565b925082820190508082111561323a576132396131dd565b5b92915050565b600080fd5b600080fd5b600080fd5b6000808335600160200384360303811261326c5761326b613240565b5b80840192508235915067ffffffffffffffff82111561328e5761328d613245565b5b6020830192506001820236038313156132aa576132a961324a565b5b509250929050565b600067ffffffffffffffff8211156132cd576132cc612f97565b5b602082029050602081019050919050565b60006132f16132ec846132b2565b612ff7565b905080838252602082019050602084028301858111156133145761331361278a565b5b835b8181101561335b57803567ffffffffffffffff81111561333957613338612780565b5b8086016133468982613094565b85526020850194505050602081019050613316565b5050509392505050565b600082601f83011261337a57613379612780565b5b813561338a8482602086016132de565b91505092915050565b600080600080600060a086880312156133af576133ae61265d565b5b600086013567ffffffffffffffff8111156133cd576133cc612662565b5b6133d988828901613365565b955050602086013567ffffffffffffffff8111156133fa576133f9612662565b5b61340688828901613365565b945050604086013567ffffffffffffffff81111561342757613426612662565b5b61343388828901613365565b935050606086013567ffffffffffffffff81111561345457613453612662565b5b61346088828901613365565b925050608086013567ffffffffffffffff81111561348157613480612662565b5b61348d88828901613365565b9150509295509295909350565b600081519050919050565b600082825260208201905092915050565b6000819050602082019050919050565b60006134d28383612904565b905092915050565b6000602082019050919050565b60006134f28261349a565b6134fc81856134a5565b93508360208202850161350e856134b6565b8060005b8581101561354a578484038952815161352b85826134c6565b9450613536836134da565b925060208a01995050600181019050613512565b50829750879550505050505092915050565b600060a082019050818103600083015261357681886134e7565b9050818103602083015261358a81876134e7565b9050818103604083015261359e81866134e7565b905081810360608301526135b281856134e7565b905081810360808301526135c681846134e7565b90509695505050505050565b6135db816126ec565b81146135e657600080fd5b50565b6000815190506135f8816135d2565b92915050565b6000602082840312156136145761361361265d565b5b6000613622848285016135e9565b91505092915050565b6000613636826128ad565b613640818561314f565b93506136508185602086016128c9565b80840191505092915050565b6000613668828461362b565b915081905092915050565b7f4e487b7100000000000000000000000000000000000000000000000000000000600052602260045260246000fd5b600060028204905060018216806136ba57607f821691505b6020821081036136cd576136cc613673565b5b50919050565b7f4e487b7100000000000000000000000000000000000000000000000000000000600052603260045260246000fd5b60008190508160005260206000209050919050565b60008154613724816136a2565b61372e818661314f565b94506001821660008114613749576001811461375e57613791565b60ff1983168652811515820286019350613791565b61376785613702565b60005b838110156137895781548189015260018201915060208101905061376a565b838801955050505b50505092915050565b60006137a68284613717565b915081905092915050565b60006137bd8385612b17565b93506137ca838584613043565b6137d3836128f3565b840190509392505050565b600081546137eb816136a2565b6137f58186612b17565b94506001821660008114613810576001811461382657613859565b60ff198316865281151560200286019350613859565b61382f85613702565b60005b8381101561385157815481890152600182019150602081019050613832565b808801955050505b50505092915050565b6000606082019050818103600083015261387d8187896137b1565b9050818103602083015261389181866137de565b905081810360408301526138a68184866137b1565b90509695505050505050565b600082905092915050565b60006020601f8301049050919050565b600082821b905092915050565b60006008830261390a7fffffffffffffffffffffffffffffffffffffffffffffffffffffffffffffffff826138cd565b61391486836138cd565b95508019841693508086168417925050509392505050565b6000819050919050565b600061395161394c613947846127e5565b61392c565b6127e5565b9050919050565b6000819050919050565b61396b83613936565b61397f61397782613958565b8484546138da565b825550505050565b600090565b613994613987565b61399f818484613962565b505050565b5b818110156139c3576139b860008261398c565b6001810190506139a5565b5050565b601f821115613a08576139d981613702565b6139e2846138bd565b810160208510156139f1578190505b613a056139fd856138bd565b8301826139a4565b50505b505050565b600082821c905092915050565b6000613a2b60001984600802613a0d565b1980831691505092915050565b6000613a448383613a1a565b9150826002028217905092915050565b613a5e83836138b2565b67ffffffffffffffff811115613a7757613a76612f97565b5b613a8182546136a2565b613a8c8282856139c7565b6000601f831160018114613abb5760008415613aa9578287013590505b613ab38582613a38565b865550613b1b565b601f198416613ac986613702565b60005b82811015613af157848901358255600182019150602085019450602081019050613acc565b86831015613b0e5784890135613b0a601f891682613a1a565b8355505b6001600288020188555050505b50505050505050565b6000604082019050613b396000830185612c13565b8181036020830152613b4b8184612b28565b90509392505050565b6000604082019050613b696000830185612c22565b613b766020830184612997565b9392505050565b600080fd5b600080fd5b60008085851115613b9b57613b9a613b7d565b5b83861115613bac57613bab613b82565b5b6001850283019150848603905094509492505050565b600060ff82169050919050565b613bd881613bc2565b82525050565b6000602082019050613bf36000830184613bcf565b92915050565b600060208284031215613c0f57613c0e61265d565b5b6000613c1d84828501612806565b91505092915050565b6000613c3182612722565b9050919050565b613c4181613c26565b8114613c4c57600080fd5b50565b600081359050613c5e81613c38565b92915050565b600060208284031215613c7a57613c7961265d565b5b6000613c8884828501613c4f565b91505092915050565b7f4e487b7100000000000000000000000000000000000000000000000000000000600052602160045260246000fd5b6000613ccc828561362b565b9150613cd8828461362b565b91508190509392505050565b600081519050613cf3816127ef565b92915050565b600060208284031215613d0f57613d0e61265d565b5b6000613d1d84828501613ce4565b91505092915050565b613d2f826128ad565b67ffffffffffffffff811115613d4857613d47612f97565b5b613d5282546136a2565b613d5d8282856139c7565b600060209050601f831160018114613d905760008415613d7e578287015190505b613d888582613a38565b865550613df0565b601f198416613d9e86613702565b60005b82811015613dc657848901518255600182019150602085019450602081019050613da1565b86831015613de35784890151613ddf601f891682613a1a565b8355505b6001600288020188555050505b505050505050565b600060a082019050613e0d6000830188612997565b613e1a6020830187612997565b613e276040830186612997565b613e346060830185612c13565b613e416080830184612c22565b9695505050505050565b6000608082019050613e606000830187612997565b613e6d6020830186613bcf565b613e7a6040830185612997565b613e876060830184612997565b9594505050505056fea2646970667358221220365d386004049e936f698a3fe5b8226504b3a451cfc99b07bf0af4503d63c3ac64736f6c63430008180033",
  "linkReferences": {},
  "deployedLinkReferences": {}
}